{
  "_format": "hh-sol-artifact-1",
  "contractName": "GravitySCtest",
  "sourceName": "contracts/GravitySCtest.sol",
  "abi": [
    {
      "inputs": [],
      "stateMutability": "nonpayable",
      "type": "constructor"
    },
    {
      "anonymous": false,
      "inputs": [
        {
          "indexed": false,
          "internalType": "address",
          "name": "",
          "type": "address"
        },
        {
          "indexed": false,
          "internalType": "uint256",
          "name": "",
          "type": "uint256"
        }
      ],
      "name": "Deposited",
      "type": "event"
    },
    {
      "anonymous": false,
      "inputs": [
        {
          "indexed": false,
          "internalType": "address",
          "name": "",
          "type": "address"
        },
        {
          "indexed": false,
          "internalType": "uint256",
          "name": "",
          "type": "uint256"
        }
      ],
      "name": "Withdrawn",
      "type": "event"
    },
    {
      "inputs": [
        {
          "internalType": "address",
          "name": "",
          "type": "address"
        },
        {
          "internalType": "uint256",
          "name": "",
          "type": "uint256"
        }
      ],
      "name": "accounts",
      "outputs": [
        {
          "internalType": "uint256",
          "name": "accountId",
          "type": "uint256"
        },
        {
          "internalType": "uint256",
          "name": "accountStart",
          "type": "uint256"
        },
        {
          "internalType": "enum GravitySCtest.AssetType",
          "name": "sourceAsset",
          "type": "uint8"
        },
        {
          "internalType": "enum GravitySCtest.AssetType",
          "name": "targetAsset",
          "type": "uint8"
        },
        {
          "internalType": "uint256",
          "name": "sourceBalance",
          "type": "uint256"
        },
        {
          "internalType": "uint256",
          "name": "targetBalance",
          "type": "uint256"
        },
        {
          "internalType": "uint256",
          "name": "intervalAmount",
          "type": "uint256"
        },
        {
          "internalType": "enum GravitySCtest.IntervalFrquency",
          "name": "strategyFrequency",
          "type": "uint8"
        }
      ],
      "stateMutability": "view",
      "type": "function"
    },
    {
      "inputs": [
        {
          "internalType": "string",
          "name": "_sourceAsset",
          "type": "string"
        },
        {
          "internalType": "uint256",
          "name": "_amount",
          "type": "uint256"
        }
      ],
      "name": "deposit",
      "outputs": [],
      "stateMutability": "payable",
      "type": "function"
    },
    {
      "inputs": [
        {
          "internalType": "uint256",
          "name": "",
          "type": "uint256"
        },
        {
          "internalType": "uint256",
          "name": "",
          "type": "uint256"
        }
      ],
      "name": "liveStrategies",
      "outputs": [
        {
          "internalType": "address",
          "name": "user",
          "type": "address"
        },
        {
          "internalType": "uint256",
          "name": "accountId",
          "type": "uint256"
        },
        {
          "internalType": "uint256",
          "name": "purchaseAmount",
          "type": "uint256"
        }
      ],
      "stateMutability": "view",
      "type": "function"
    },
    {
      "inputs": [
        {
          "internalType": "string",
          "name": "",
          "type": "string"
        }
      ],
      "name": "tokenAddresses",
      "outputs": [
        {
          "internalType": "address",
          "name": "",
          "type": "address"
        }
      ],
      "stateMutability": "view",
      "type": "function"
    },
    {
      "inputs": [
        {
          "internalType": "string",
          "name": "_sourceAsset",
          "type": "string"
        },
        {
          "internalType": "uint256",
          "name": "_amount",
          "type": "uint256"
        }
      ],
      "name": "withdraw",
      "outputs": [],
      "stateMutability": "payable",
      "type": "function"
    }
  ],
  "bytecode": "0x60806040523480156200001157600080fd5b5073c4375b7de8af5a38a93548eb8453a498222c4ff2600560405162000037906200025f565b908152602001604051809103902060006101000a81548173ffffffffffffffffffffffffffffffffffffffff021916908373ffffffffffffffffffffffffffffffffffffffff16021790555073d0a1e359811322d97991e03f863a0c30c2cf029c6005604051620000a89062000231565b908152602001604051809103902060006101000a81548173ffffffffffffffffffffffffffffffffffffffff021916908373ffffffffffffffffffffffffffffffffffffffff16021790555073a36085f69e2889c224210f603d836748e7dc00886005604051620001199062000248565b908152602001604051809103902060006101000a81548173ffffffffffffffffffffffffffffffffffffffff021916908373ffffffffffffffffffffffffffffffffffffffff16021790555062000281565b60006200017a60048362000276565b91507f57455448000000000000000000000000000000000000000000000000000000006000830152600482019050919050565b6000620001bc60048362000276565b91507f4c494e4b000000000000000000000000000000000000000000000000000000006000830152600482019050919050565b6000620001fe60038362000276565b91507f44414900000000000000000000000000000000000000000000000000000000006000830152600382019050919050565b60006200023e826200016b565b9150819050919050565b60006200025582620001ad565b9150819050919050565b60006200026c82620001ef565b9150819050919050565b600081905092915050565b610f9c80620002916000396000f3fe60806040526004361061004a5760003560e01c806330b39a621461004f578063875245811461006b5780638e27d719146100af578063935b13f6146100cb5780639ce91add14610108575b600080fd5b610069600480360381019061006491906108fc565b610147565b005b34801561007757600080fd5b50610092600480360381019061008d9190610856565b6103d0565b6040516100a6989796959493929190610c08565b60405180910390f35b6100c960048036038101906100c491906108fc565b61045c565b005b3480156100d757600080fd5b506100f260048036038101906100ed91906108bb565b6106ff565b6040516100ff9190610af6565b60405180910390f35b34801561011457600080fd5b5061012f600480360381019061012a9190610950565b610748565b60405161013e93929190610b71565b60405180910390f35b60006005836040516101599190610adf565b908152602001604051809103902060009054906101000a900473ffffffffffffffffffffffffffffffffffffffff16905081600360003373ffffffffffffffffffffffffffffffffffffffff1673ffffffffffffffffffffffffffffffffffffffff168152602001908152602001600020600081548110610203577f4e487b7100000000000000000000000000000000000000000000000000000000600052603260045260246000fd5b906000526020600020906007020160030154101561022057600080fd5b81600360003373ffffffffffffffffffffffffffffffffffffffff1673ffffffffffffffffffffffffffffffffffffffff168152602001908152602001600020600081548110610299577f4e487b7100000000000000000000000000000000000000000000000000000000600052603260045260246000fd5b906000526020600020906007020160030160008282546102b99190610d64565b9250508190555060008173ffffffffffffffffffffffffffffffffffffffff1663a9059cbb33856040518363ffffffff1660e01b81526004016102fd929190610b48565b602060405180830381600087803b15801561031757600080fd5b505af115801561032b573d6000803e3d6000fd5b505050506040513d601f19601f8201168201806040525081019061034f9190610892565b905080610391576040517f08c379a000000000000000000000000000000000000000000000000000000000815260040161038890610be8565b60405180910390fd5b7f7084f5476618d8e60b11ef0d7d3f06914655adb8793e28ff7f018d4c76d505d533846040516103c2929190610b48565b60405180910390a150505050565b600360205281600052604060002081815481106103ec57600080fd5b9060005260206000209060070201600091509150508060000154908060010154908060020160009054906101000a900460ff16908060020160019054906101000a900460ff16908060030154908060040154908060050154908060060160009054906101000a900460ff16905088565b600073ffffffffffffffffffffffffffffffffffffffff166005836040516104849190610adf565b908152602001604051809103902060009054906101000a900473ffffffffffffffffffffffffffffffffffffffff1673ffffffffffffffffffffffffffffffffffffffff16141561050a576040517f08c379a000000000000000000000000000000000000000000000000000000000815260040161050190610bc8565b60405180910390fd5b600060058360405161051c9190610adf565b908152602001604051809103902060009054906101000a900473ffffffffffffffffffffffffffffffffffffffff16905081600360003373ffffffffffffffffffffffffffffffffffffffff1673ffffffffffffffffffffffffffffffffffffffff1681526020019081526020016000206000815481106105c6577f4e487b7100000000000000000000000000000000000000000000000000000000600052603260045260246000fd5b906000526020600020906007020160030160008282546105e69190610d0e565b9250508190555060008173ffffffffffffffffffffffffffffffffffffffff166323b872dd3330866040518463ffffffff1660e01b815260040161062c93929190610b11565b602060405180830381600087803b15801561064657600080fd5b505af115801561065a573d6000803e3d6000fd5b505050506040513d601f19601f8201168201806040525081019061067e9190610892565b9050806106c0576040517f08c379a00000000000000000000000000000000000000000000000000000000081526004016106b790610ba8565b60405180910390fd5b7f2da466a7b24304f47e87fa2e1e5a81b9831ce54fec19055ce277ca2f39ba42c433846040516106f1929190610b48565b60405180910390a150505050565b6005818051602081018201805184825260208301602085012081835280955050505050506000915054906101000a900473ffffffffffffffffffffffffffffffffffffffff1681565b6004602052816000526040600020818154811061076457600080fd5b9060005260206000209060030201600091509150508060000160009054906101000a900473ffffffffffffffffffffffffffffffffffffffff16908060010154908060020154905083565b60006107c26107bd84610cb7565b610c86565b9050828152602081018484840111156107da57600080fd5b6107e5848285610e2a565b509392505050565b6000813590506107fc81610f21565b92915050565b60008151905061081181610f38565b92915050565b600082601f83011261082857600080fd5b81356108388482602086016107af565b91505092915050565b60008135905061085081610f4f565b92915050565b6000806040838503121561086957600080fd5b6000610877858286016107ed565b925050602061088885828601610841565b9150509250929050565b6000602082840312156108a457600080fd5b60006108b284828501610802565b91505092915050565b6000602082840312156108cd57600080fd5b600082013567ffffffffffffffff8111156108e757600080fd5b6108f384828501610817565b91505092915050565b6000806040838503121561090f57600080fd5b600083013567ffffffffffffffff81111561092957600080fd5b61093585828601610817565b925050602061094685828601610841565b9150509250929050565b6000806040838503121561096357600080fd5b600061097185828601610841565b925050602061098285828601610841565b9150509250929050565b61099581610d98565b82525050565b6109a481610e06565b82525050565b6109b381610e18565b82525050565b60006109c482610ce7565b6109ce8185610d03565b93506109de818560208601610e39565b80840191505092915050565b60006109f7602283610cf2565b91507f4465706f73697420756e7375636365737366756c3a207472616e73666572467260008301527f6f6d0000000000000000000000000000000000000000000000000000000000006020830152604082019050919050565b6000610a5d601683610cf2565b91507f556e737570706f727465642061737365742074797065000000000000000000006000830152602082019050919050565b6000610a9d601583610cf2565b91507f576974686472617720756e7375636365737366756c00000000000000000000006000830152602082019050919050565b610ad981610dfc565b82525050565b6000610aeb82846109b9565b915081905092915050565b6000602082019050610b0b600083018461098c565b92915050565b6000606082019050610b26600083018661098c565b610b33602083018561098c565b610b406040830184610ad0565b949350505050565b6000604082019050610b5d600083018561098c565b610b6a6020830184610ad0565b9392505050565b6000606082019050610b86600083018661098c565b610b936020830185610ad0565b610ba06040830184610ad0565b949350505050565b60006020820190508181036000830152610bc1816109ea565b9050919050565b60006020820190508181036000830152610be181610a50565b9050919050565b60006020820190508181036000830152610c0181610a90565b9050919050565b600061010082019050610c1e600083018b610ad0565b610c2b602083018a610ad0565b610c38604083018961099b565b610c45606083018861099b565b610c526080830187610ad0565b610c5f60a0830186610ad0565b610c6c60c0830185610ad0565b610c7960e08301846109aa565b9998505050505050505050565b6000604051905081810181811067ffffffffffffffff82111715610cad57610cac610eca565b5b8060405250919050565b600067ffffffffffffffff821115610cd257610cd1610eca565b5b601f19601f8301169050602081019050919050565b600081519050919050565b600082825260208201905092915050565b600081905092915050565b6000610d1982610dfc565b9150610d2483610dfc565b9250827fffffffffffffffffffffffffffffffffffffffffffffffffffffffffffffffff03821115610d5957610d58610e6c565b5b828201905092915050565b6000610d6f82610dfc565b9150610d7a83610dfc565b925082821015610d8d57610d8c610e6c565b5b828203905092915050565b6000610da382610ddc565b9050919050565b60008115159050919050565b6000819050610dc482610ef9565b919050565b6000819050610dd782610f0d565b919050565b600073ffffffffffffffffffffffffffffffffffffffff82169050919050565b6000819050919050565b6000610e1182610db6565b9050919050565b6000610e2382610dc9565b9050919050565b82818337600083830152505050565b60005b83811015610e57578082015181840152602081019050610e3c565b83811115610e66576000848401525b50505050565b7f4e487b7100000000000000000000000000000000000000000000000000000000600052601160045260246000fd5b7f4e487b7100000000000000000000000000000000000000000000000000000000600052602160045260246000fd5b7f4e487b7100000000000000000000000000000000000000000000000000000000600052604160045260246000fd5b60038110610f0a57610f09610e9b565b5b50565b60058110610f1e57610f1d610e9b565b5b50565b610f2a81610d98565b8114610f3557600080fd5b50565b610f4181610daa565b8114610f4c57600080fd5b50565b610f5881610dfc565b8114610f6357600080fd5b5056fea26469706673582212201f685b2ccc9a492832b8aaca365c7de8363afb929fce91eafa3aec46685dd60d64736f6c63430008000033",
  "linkReferences": {},
  "deployedLinkReferences": {}
}